:020000040000fa
:080000000002040000000000f2
:020000040000fa
:100400008ff621000e7f22000e0188000000000000
:100410000c00070000402000010020001100070030
:10042000000020000000e000020032000000020096
:1004300000000000a0130200000000000040da00ed
:100440000000fe004440a900000020000000e00081
:100450000300320000002000a00188004440a800f2
:100460000000060091018800800078000000eb0089
:1004700015003700e280400032a0b4009101ba00bc
:10048000e280400032a0b4009102ba00e280400055
:1004900032a0b4000002eb00472bde00f507b200eb
:1004a000602ce10004003a000059eb008301e900f0
:1004b000fdff3e00040037006128e100010032002a
:1004c0000082eb00040007001101ba000200e00006
:1004d000e8ff3a00000006003159ba008301e90044
:1004e0000c0032002159ba008301e90008003200f3
:1004f0000400e00003003a00e280400032a0b400b3
:10050000f5ff370011d9ba008301e900faff3a007c
:100510008100e800e180400032a0b4000000060045
:100520000040da000000fe00889fbe008a9fbe00e7
:100530008c1f78005f0007006600330003866c00a4
:100540006450e1002e0032006420e10033003200ec
:100550006150e1002f0032006120e10031003200e3
:1005600085855500eb07b000090020000804200035
:10057000050037000804440089844c000a0031005b
:100580000603430087834b000001530081815b0019
:10059000f8ff33000203be000800a0000804440076
:1005a00089844c00f6ff3900c639dd0083017300f1
:1005b00001003200130020008904d1000884d30018
:1005c0000998a300050032000800a7000300a0005e
:1005d0008904d1000884d3008b05e8008904d10088
:1005e0000884d3000001eb000281d200490007001b
:1005f00001f0a1000cf0a70001f0a0003e003700c0
:100600006420e100400032000801be000200be008c
:10061000f7ff37006120e1003b0032006000b800c6
:10062000f3ff37000000200001f82700f0ff37003b
:100630000001be005d0007000470a70003f0a100e8
:100640006509b100160032000d0035006828e10090
:1006500006003500f0ff2f00f1ff27000300e00047
:1006600013003b00010028000000050000004000ce
:10067000818048008502e900fcff3a00080037004d
:10068000f88f420002003c008000eb0000000500f3
:100690008100d1000080d3008502e800fcff3a0011
:1006a0000300e00002003b0060001000e080180042
:1006b000000006000004be003c0007000003be006e
:1006c0000405be000200be0038000700844f75001c
:1006d000000006000200be006450e1000500360084
:1006e0006420e100020036000968a30001003a001e
:1006f0000800be000160a0004f0678004f05be0054
:100700004f04be0000000600f0ff2f00f1ff27009d
:10071000f9ff370081002000618055000b003d008b
:100720000b00200061fe2f000100e1001d003400dd
:1007300082817100610164008904d1000884d300c2
:100740000000e800faff3a00710020006100640038
:1007500003007000020060000900320061044400e0
:10076000e0844c000988a500050032008b05e800f4
:100770006808e10002003a008904d1000884d3002f
:10078000f20f20000258e10005003d00c75ddd00ca
:10079000f907b200898075000800780000000600a3
:1007a0000bf827008b00780000000500c70ade0068
:1007b000f107b200f50fb20008003200e1cf4200ad
:1007c000020032000170a00024000500810f7000bb
:1007d000010032000408050044000500810f70008c
:1007e00002003a00140005008502e9000000400004
:1007f00081c04800fcff3b000170a0002400050000
:020000040000fa
:020000040001f9
:0457f800ad7b000085
:020000040000fa
:020000040001f9
:0457fc003f3f00002b
:020000040000fa
:1000080090020000900200009002000090020000a0
:100018009002000090020000900200009002000090
:100028009002000090020000900200009002000080
:1000380090020000900200009002000020160000cc
:1000480034160000900200009002000090020000a8
:1000580090020000e21400009002000090020000ec
:10006800900200009002000090020000c2170000f9
:100078009002000090020000900200009002000030
:100088009002000090020000900200006816000034
:100098009002000090020000900200009002000010
:1000a8009002000090020000900200009002000000
:1000b80090020000900200009002000090020000f0
:1000c80090020000900200009002000090020000e0
:1000d80090020000900200009002000090020000d0
:1000e80090020000900200009002000090020000c0
:1000f80090020000900200009002000090020000b0
:10010800900200009002000090020000900200009f
:10011800900200009002000090020000900200008f
:10012800900200009002000090020000900200007f
:10013800900200009002000090020000900200006f
:10014800900200009002000090020000900200005f
:10015800900200009002000090020000900200004f
:10016800900200009002000090020000900200003f
:10017800900200009002000090020000900200002f
:10018800900200009002000090020000900200001f
:10019800900200009002000090020000900200000f
:1001a80090020000900200009002000090020000ff
:1001b80090020000900200009002000090020000ef
:1001c80090020000900200009002000090020000df
:1001d80090020000900200009002000090020000cf
:1001e80090020000900200009002000090020000bf
:0801f8009002000090020000db
:020000040000fa
:10020800900200009002000090020000900200009e
:10021800900200009002000090020000900200008e
:10022800900200009002000090020000900200007e
:1002380090020000900200009002000020160000ca
:1002480034160000900200009002000090020000a6
:1002580090020000e21400009002000090020000ea
:10026800900200009002000090020000c2170000f7
:10027800900200009002000090020000900200002e
:100288009002000090020000900200006816000032
:10029800900200009002000090020000900200000e
:1002a80090020000900200009002000090020000fe
:1002b80090020000900200009002000090020000ee
:1002c80090020000900200009002000090020000de
:1002d80090020000900200009002000090020000ce
:1002e80090020000900200009002000090020000be
:1002f80090020000900200009002000090020000ae
:10030800900200009002000090020000900200009d
:10031800900200009002000090020000900200008d
:10032800900200009002000090020000900200007d
:10033800900200009002000090020000900200006d
:10034800900200009002000090020000900200005d
:10035800900200009002000090020000900200004d
:10036800900200009002000090020000900200003d
:10037800900200009002000090020000900200002d
:10038800900200009002000090020000900200001d
:10039800900200009002000090020000900200000d
:1003a80090020000900200009002000090020000fd
:1003b80090020000900200009002000090020000ed
:1003c80090020000900200009002000090020000dd
:1003d80090020000900200009002000090020000cd
:1003e80090020000900200009002000090020000bd
:0803f8009002000090020000d9
:020000040000fa
:10080000000800005a17000002000000000000006d
:1008100000000000000000000000000000000000d8
:10082000009600000a0096000096000096009600d0
:1008300000960000960096000096000096002c009e
:100840000196000096002c0001960000960096008c
:10085000009600002c01960000960000960096007d
:100860000096000096009600009600009600960004
:1008700000960000960096000096000096009600f4
:1008800000960000960096000096000096009600e4
:10089000009600002c01960000960000960096003d
:1008a000002c01009600960000960000960096002d
:1008b00000960000960096000096000096009600b4
:1008c00000960000960096000096000096009600a4
:1008d0000096000096009600009600009600960094
:1008e000002c01002c019600009600009600960056
:1008f0000096000096009600009600009600960074
:100900000096000096009600009600002c019600cc
:100910000096000096009600009600009600960053
:100920000096000096009600000a000096009600cf
:10093000002c01002c019600009600009600960005
:100940000096000096009600009600009600960023
:100950000096000096009600009600002c0196007c
:100960000096000096009600002c0100960096006c
:10097000002c010058022c00019600009600960001
:1009800000960000960096000096000096009600e3
:1009900000960000960096000096000096002c003d
:1009a00001960000960096000096000096009600c2
:1009b0000096000096009600009600000a0096003f
:1009c000009600002c012c00019600009600960075
:1009d0000096000096009600009600009600960093
:1009e00000960000960096000096000096002c00ed
:1009f0000196000096009600009600002c019600db
:100a0000009600002c015800029600000a00960093
:100a10000096000096009600009600009600960052
:100a20000096000096009600009600009600960042
:100a3000002c010096000a00009600009600960027
:100a4000009600009600960000960000580258009c
:100a5000029600000a00960000960000960096009c
:100a60000096000096009600009600009600960002
:100a70000096000096009600002c010096000a00e7
:100a800000960000960096000096000096009600e2
:100a90000096000096009600002c0100960096003b
:100aa000002c0100a4d0a400440000002041a400b8
:100ab000d0a444000050c30047a4d000a4440000c8
:100ac00050c34700a4d0820044a4d000a444000036
:100ad00050c347000000c40044005000c34700005a
:100ae00050c347000000440044005000c3470000ca
:100af00050c34700a4d0820044005000c347000008
:100b000050c347000000440044005000c347a40005
:100b1000d02444000050c30047005000c3470000e9
:100b2000005c44000050c30047a4f000764400007d
:100b300050c347007b146900440000005c4400007f
:100b400050c347000000440044a4d000a444000067
:100b500000c444000000dc0044005000c3477100a2
:100b60009dae44000000c40044005000c347a400f0
:100b7000d0a444000050c30047a4d00082447b00ae
:100b8000d4924400a4f0760044005000c347a4006f
:100b9000d08244000050c30047005000c34700000b
:100ba000004444000050c30047a4d0002444000087
:100bb00050c347000050c300470000005c440000e1
:100bc00050c34700a4f0760044005000c3477b00a8
:100bd000146944000000dc0043005000c3470000db
:100be00000444400a4d0a40044000000c444000019
:100bf00000dc44000050c30047719d00ae4400007b
:100c000000c444000050c30047a4d000a444000026
:100c100050c34700a4d08200447bd4009244a40077
:100c2000f07644000050c30047005000c347000066
:100c300000c44400b8feb80044719d00ae44a40056
:100c4000909b44000050c30047a4d000a44400007f
:100c500050c3470066a64f00440000005c44a40057
:100c6000d08244000050c300470000005c44a40050
:100c7000d08244007bd4920044005000c34700005f
:100c800000c44400b8feb80044719d00ae44a40006
:100c9000909b44000050c30047a4d000a44400002f
:100ca00050c34700a4d0020045005000c347a40031
:100cb000d00245000000200041a4d0000245000001
:100cc00050c347000050c30047005000c347000016
:100cd00000c44400b8feb80044719d00ae44a400b6
:100ce000909b44000050c30047a4d000a4440000df
:100cf00050c3470066a64f00440000005c44a400b7
:100d0000d08244000050c300470000005c44a400af
:100d1000d08244007bd4920044005000c347a4001a
:100d2000909b44000050c30047005000c3477b0025
:100d3000d49244000050c30047a4d0008244000075
:100d400050c347000050c30047005000c347000095
:100d500050c347000000c40044b8fe00b84471000e
:100d60009dae4400a4909b0044005000c347a400e3
:100d7000d0a444000050c3004766a6004f440000c2
:100d8000005c4400a4d0820044005000c34700002f
:100d9000005c4400a4d08200447bd4009244000054
:100da00050c347000000c40044b8fe00b8447100be
:100db0009dae4400a4909b0044005000c347a40093
:100dc000d0a444000050c30047a4d0000245000056
:100dd00050c34700a4d00200450000002041a400f9
:100de000d00245000050c30047005000c347000038
:100df00050c347000000c40044b8fe00b84471006e
:100e00009dae4400a4909b0044005000c347a40042
:100e1000d0a444000050c3004766a6004f44000021
:100e2000005c4400a4d0820044005000c34700008e
:100e3000005c4400a4d08200447bd40092440000b3
:100e400050c34700a4909b0044005000c3470000db
:100e500050c347007bd4920044005000c347a40015
:100e6000d08244000050c30047005000c347000038
:100e700050c34700a4d08200440000002041a400d9
:100e8000d08244000050c30047a4d0008244000038
:100e900050c34700a4d08200447bd4009244000099
:100ea00050c34700a4d0a40044a4d0008244000052
:100eb00050c3470000005c004400000044440000b0
:100ec00050c347000050c30047a4d0008244000034
:100ed00000204100a4d0820044005000c347a40079
:100ee000d08244000050c30047a4d00082447b005d
:100ef000d4924400a4d0a40044005000c347000092
:100f000050c34700a4d08200440000002041a40048
:100f1000d08244000050c30047a4d00082440000a7
:100f200050c34700a4d08200447bd4009244000008
:100f300050c34700a4d0a40044a4d00082440000c1
:100f400050c3470000005c0044000000444400001f
:100f500050c347000050c30047a4d000a444000081
:100f600000204100a4d0a40044005000c347a400c6
:100f7000d0a444000050c30047a4d0008244a40081
:100f8000d0a444000050c30047000000c444000047
:100f900050c347000050c300470000004444000015
:100fa00050c347000050c300476400006400640061
:100fb0000064000064006400002c01002c01640047
:100fc00000640000640064000064000064002c0001
:100fd000012c0100640064000064000064006400ef
:100fe000006400002c016400000a000064000a0094
:100ff000006400005802080007000000c443a40079
:10100000d0024400a4d02400440000004444a400c2
:10101000d0824400a4d0a40044000000c444a40032
:10102000d0a4440066a6cf0043a4d0000244a4008c
:10103000901b440066a64f0044a4d0008244a40044
:10104000909b440066a6cf0044a490009b447b0084
:1010500014e943007bd4120044719d002e447b00b0
:10106000146944007bd4920044719d00ae447b001f
:1010700014e94400a4f0f600440000002041a4005c
:10108000f0f644000000200041a4f000f644a40063
:10109000d00245000050c30047960000960096001d
:1010a00000960000960096000084030096009600cb
:1010b00000960000960096000096000084039600bb
:1010c00000960000960096000096000096008400ae
:1010d0000396000096009600009600009600960089
:1010e0000058020064006400006400002c010a0043
:1010f000002c01000a002c00010a00002c010a004b
:10110000002c01000a002c00010a000064006400a9
:10111000006400006400640000640000c8000a006d
:1011200000c800000a00c800000a0000c8000a0049
:1011300000c800000a00c800000a00000807a40058
:10114000d0024400a4d0820044000000dc43a4008c
:10115000d08244007b14e900437b14006944000002
:1011600050c34700a4d0020044a4d0008244000031
:1011700000dc4300a4d08200447b1400e9437b00e0
:10118000146944000050c30047719d00ae437100d4
:101190009d2e44007bd49200437bd4001244a400d3
:1011a000909b4300a4901b0044005000c347710073
:1011b0009dae4300719d2e00447bd40092437b0082
:1011c000d4124400a4909b0043a490001b44000050
:1011d00050c34700a4901b00447bd40012440a0073
:1011e000970a4400a4d00200440000002041a4005b
:1011f000901b440000002000417bd40012440000fa
:101200000020410066a6cf004300000020410000fe
:1012100000c4430000002000410a97000a44000077
:1012200000204100a4d0020044b8fe003844710000
:101230009d2e4400a4d02400447b14006944000087
:10124000005c440066a64f00440000002041a4005a
:10125000901b44000000200041a4f000f643000071
:10126000002041007b14e900430000002041000001
:1012700000dc4300000020004166a600cf430000d0
:10128000002041000050c300479600000a0096006d
:10129000000a000096000a00004b00004b004b00c3
:1012a000009600000a004b00004b00004b00960027
:1012b000009600000a009600000a000096000a004e
:1012c000004b00004b004b00009600000a004b0052
:1012d000004b00004b009600000a0000a4d08200e2
:1012e000440000002041a400d082440000002000ff
:1012f00041a4d00082440000002041007bd41200b1
:1013000044a4d0008244000050c34700a4d082000f
:101310004400000020417b00d41244007bd49200a2
:10132000447bd4001244a400d0024400a4f0760010
:10133000440000002041a400f0764400000020009a
:1013400041a4f0007644000000204100a4d0020037
:1013500044a4f0007644000050c34700a4f0760097
:10136000440000002041a400d0024400a4f0760014
:1013700044a4d0000244a400f07644000000200001
:10138000410100000000000000000000000000001b
:10139000000000000a000000000000000000000043
:1013a000000000000000000000000000000000003d
:1013b000000000000000000000000000000000002d
:1013c000000000000000000000000000000000001d
:1013d000000000000000000000000000000000000d
:102730005a1f00000e000000000000000000000012
:020000040000fa
:102740000000fa00a0fe2f0060198800c002a80057
:10275000c802a800c842a8005001200080198800c3
:10276000f03f200060088800c16c20009140780094
:1027700000ceb30000c060002041b300cce6b7003b
:10278000c982a900d16c20009140780000ceb3002e
:1027900000c060003041b300cde6b700c9a2a90077
:1027a000e16c20009140780000ceb30000c06000d2
:1027b0004041b300cee6b700c9c2a900f16c2000c9
:1027c0009140780000ceb30000c060005041b300db
:1027d000cfe6b700c9e2a900cd42a9000000eb0096
:1027e000000c88000000eb00300c88000000eb00bb
:1027f000600c88000000eb00900c8800416a20000b
:102800009140780000ceb30000c060009040b3005b
:10281000a4e6b700816c20009140780000ceb300a0
:1028200000c060003040b300c8e6b7007000200070
:10283000401188000000280000118800004420009a
:10284000101188008560a900000e20000019880082
:1028500080402000101988001010200020198800e6
:102860000000eb004019880085a0a90095a0a800f1
:102870000000eb00200c88000000eb00500c8800ea
:102880000000eb00800c88000000eb00b00c88001a
:102890000000eb00100c88000000eb00400c8800ea
:1028a0000000eb00700c88000000eb00a00c88001a
:1028b0000000eb00000c88000000eb00300c8800ea
:1028c0000000eb00600c88000000eb00900c88001a
:1028d00060002000200c880060002000500c880060
:1028e00060002000800c880060002000b00c880090
:1028f0000000eb00300888000000eb008008880032
:1029000084e0a90094e0a8000000eb0050088800d3
:102910000000eb0090088800909923007008880060
:102920008500a9009500a8000000eb00a008880021
:102930000000eb00f008880090992300d008880080
:102940008760a9009760a8000000eb00c00888001d
:102950000000eb00000988008780a9009780a8008c
:102960009099230060088800c8a2a8006b60a800a6
:102970006360a8008660a9009660a800c8a2a800ad
:102980006b60a8006360a800c8e2a8006ae0a80025
:1029900062e0a800c8c2a900c942a9000000eb007b
:1029a000601688000000eb00e084880021e3a900a5
:1029b00011e1a80013e1a9001fe1a8009a01070096
:1029c000feff37003600f800809fbe00821f7800af
:1029d0003400f80000002000a00188000200fa0086
:1029e00085a0a9002043a9002003a90080858000bc
:1029f000e90f500013003c00f0fa800080007800de
:102a00000018800000804000f0fa880000fb800081
:102a100080007800101880000080400000fb8800d3
:102a200010fb8000800078002018800000804000ab
:102a300010fb8800808580000000e8008085880009
:102a400017003700f0fa8000a200200011000900f2
:102a50000200d8005085880000fb8000a200200002
:102a6000110009000200d8006085880010fb80007a
:102a7000a2002000110009000200d8007085880023
:102a80000000eb0010fb880010fb800000fb8800ba
:102a900000fb8000f0fa8800f0fa80008085880052
:102aa000c184800030062000808f50001a003c0056
:102ab000808580000000e00017003a00518580000a
:102ac000608580008080400070858000008040002c
:102ad00032002000110009000200d800000f780029
:102ae000c0848000e10f500002003a001e00780010
:102af000d0848800d08480001e0040002200200086
:102b0000110009000200d800d0848800c084800031
:102b10000000e800c0848800e08480000000e0003d
:102b20003f003200c184800030062000808f5000ba
:102b30003d003400808580000000e0003a003a004b
:102b4000d0848000ea00400050858000808f5000d3
:102b50000d003400d0848000ea00400060858000d1
:102b6000808f500008003400d0848000ea004000cc
:102b700070858000808f50000300340070002000ba
:102b800020fb8800280037005085800021032000aa
:102b90008080400070858000808f50000e003400df
:102ba00070858000210320008080400050858000d7
:102bb000808f500008003400d0848000ea0040007c
:102bc00060858000808f500003003d0010002000d1
:102bd00020fb88001400370050858000210320006e
:102be0008080400070858000808f500003003d0091
:102bf0002000200020fb88000b003700708580003b
:102c0000210320008080400050858000808f50008c
:102c100005003d004000200020fb88000200370036
:102c20000000eb0020fb88000080fa003400f9006f
:102c30004f0178004f00be003600f900004006004a
:102c40003400f800881f780008002000a8018800e0
:102c50004f0478000000fa0084e0a9000080fa0028
:102c60003400f90000400600809fbe00821f7800fb
:102c70003400f80000002000a00188000000fa00e5
:102c80008500a900ccc2bf000080fb004600de002a
:102c90006140600000c0ea00614060006140600087
:102ca0004601dd00c12c200091407800f0cbb3003c
:102cb00000c0600002407000cce2b7000080fa0063
:102cc0003400f9004f0178004f00be0000400600bc
:102cd0003600f800809fbe00829fbe00849fbe0029
:102ce000869fbe003400f80000002000a00188008c
:102cf0000000fa00e0fa80000000e800e0fa880036
:102d0000408580000000e800408588008760a900b9
:102d100030fb80000000e00021003a00704080009d
:102d2000800040000081200000804000900078007a
:102d300040408000808f500015003c000000eb00f8
:102d400040408800704080000000e800120f200022
:102d5000110009000200d8008000fd0070408800ca
:102d600070408000c200dd00209f200000804000f5
:102d70001001be000000200011b62400eaf5070093
:102d80002bf607000000e900700888007500370086
:102d9000404080000000e80040408800710037009b
:102da00030fb8000e10f500027003a0070408000a7
:102db000fd0f50001d003c0070408000800040006e
:102dc00060db2000008040009000780040408000e0
:102dd000808f500011003c000000eb004040880054
:102de000704080000000e800704088007040800063
:102df000c200dd0020df2000008040001001be0086
:102e00000000200011b62400c7f5070008f60700ef
:102e10000000e90070088800520037004040800040
:102e20000000e800404088004e00370020002000ed
:102e300030fb88000000eb0070408800704080008c
:102e4000404088004700370030fb8000e20f500010
:102e500021003a007040800080004000a0e6200081
:102e6000008040009000780040408000808f50003b
:102e700015003c000000eb004040880070408000de
:102e80000000e800e2032000110009000200d80061
:102e90008000fd007040880070408000c200dd00ae
:102ea00060ee2000008040001001be000000200005
:102eb00011b624009cf50700ddf507000000e900cd
:102ec0007008880027003700404080000000e800bc
:102ed000404088002300370030fb8000e30f5000a3
:102ee00020003a007040800080004000e0fd20009b
:102ef000008040009000780040408000808f5000ab
:102f000015003c000000eb0040408800704080004d
:102f10000000e800f2012000110009000200d800c2
:102f20008000fd007040880070408000c200dd001d
:102f3000c0012100008040001001be000000200000
:102f400011b6240078f50700b9f507000000e90084
:102f50007008880003003700404080000000e8004f
:102f6000404088000080fa003400f9004f03be00a2
:102f70004f02be004f01be004f00be003600f900f8
:102f800000400600809fbe003400f80000002000d2
:102f9000a00188000000fa008660a900cac2bf0034
:102fa0000042b2000004e00004003a00e084800027
:102fb0000080ea00e08488000e003700cac2bf002b
:102fc00001c8b300014060000004e00009003a00bd
:102fd0001000200030fb88000000eb0070408800eb
:102fe000704080004040880010002000f08488007d
:102ff000cd42a9000080fa003400f9004f00be0065
:10300000004006000200fa00000f78000000eb000c
:10301000e0fa8800e0fa80009e0f5000fdff3900c2
:103020000080fa00000006000000fa00cd42a9006e
:103030000000eb00300c88000000eb00900c8800d2
:103040000000eb00000c88000000eb00600c880022
:10305000401f2000ebff0700cd42a8006008800061
:103060006300b9004200de00300c88000000eb0075
:10307000900c88000000eb00000c880060088000c5
:103080000000d100600c880040382000ddff070000
:10309000cd42a9000000eb00300c88000000eb00de
:1030a000900c88000000eb00000c88000000eb0092
:1030b000600c8800401f2000d2ff07000080fa004b
:0430c0000000060006
:00000001FF
