:020000040000fa
:080000000002040000000000f2
:020000040000fa
:100400002ff721000e7f22000e018800000000005f
:100410000c00070000402000010020001100070030
:10042000000020000000e000020032000000020096
:1004300000000000a8130200000000000040da00e5
:100440000000fe004440a900000020000000e00081
:100450000300320000002000a00188004440a800f2
:100460000000060091018800800078000000eb0089
:1004700015003700e280400032a0b4009101ba00bc
:10048000e280400032a0b4009102ba00e280400055
:1004900032a0b4000002eb00472bde00f507b200eb
:1004a000602ce10004003a000059eb008301e900f0
:1004b000fdff3e00040037006128e100010032002a
:1004c0000082eb00040007001101ba000200e00006
:1004d000e8ff3a00000006003159ba008301e90044
:1004e0000c0032002159ba008301e90008003200f3
:1004f0000400e00003003a00e280400032a0b400b3
:10050000f5ff370011d9ba008301e900faff3a007c
:100510008100e800e180400032a0b4000000060045
:100520000040da000000fe00889fbe008a9fbe00e7
:100530008c1f78005f0007006600330003866c00a4
:100540006450e1002e0032006420e10033003200ec
:100550006150e1002f0032006120e10031003200e3
:1005600085855500eb07b000090020000804200035
:10057000050037000804440089844c000a0031005b
:100580000603430087834b000001530081815b0019
:10059000f8ff33000203be000800a0000804440076
:1005a00089844c00f6ff3900c639dd0083017300f1
:1005b00001003200130020008904d1000884d30018
:1005c0000998a300050032000800a7000300a0005e
:1005d0008904d1000884d3008b05e8008904d10088
:1005e0000884d3000001eb000281d200490007001b
:1005f00001f0a1000cf0a70001f0a0003e003700c0
:100600006420e100400032000801be000200be008c
:10061000f7ff37006120e1003b0032006000b800c6
:10062000f3ff37000000200001f82700f0ff37003b
:100630000001be005d0007000470a70003f0a100e8
:100640006509b100160032000d0035006828e10090
:1006500006003500f0ff2f00f1ff27000300e00047
:1006600013003b00010028000000050000004000ce
:10067000818048008502e900fcff3a00080037004d
:10068000f88f420002003c008000eb0000000500f3
:100690008100d1000080d3008502e800fcff3a0011
:1006a0000300e00002003b0060001000e080180042
:1006b000000006000004be003c0007000003be006e
:1006c0000405be000200be0038000700844f75001c
:1006d000000006000200be006450e1000500360084
:1006e0006420e100020036000968a30001003a001e
:1006f0000800be000160a0004f0678004f05be0054
:100700004f04be0000000600f0ff2f00f1ff27009d
:10071000f9ff370081002000618055000b003d008b
:100720000b00200061fe2f000100e1001d003400dd
:1007300082817100610164008904d1000884d300c2
:100740000000e800faff3a00710020006100640038
:1007500003007000020060000900320061044400e0
:10076000e0844c000988a500050032008b05e800f4
:100770006808e10002003a008904d1000884d3002f
:10078000f20f20000258e10005003d00c75ddd00ca
:10079000f907b200898075000800780000000600a3
:1007a0000bf827008b00780000000500c70ade0068
:1007b000f107b200f50fb20008003200e1cf4200ad
:1007c000020032000170a00024000500810f7000bb
:1007d000010032000408050044000500810f70008c
:1007e00002003a00140005008502e9000000400004
:1007f00081c04800fcff3b000170a0002400050000
:020000040000fa
:020000040001f9
:0457f800ad7b000085
:020000040000fa
:020000040001f9
:0457fc003f3f00002b
:020000040000fa
:1000080090020000900200009002000090020000a0
:100018009002000090020000900200009002000090
:100028009002000090020000900200009002000080
:100038009002000090020000900200006619000083
:100048007a1900009002000090020000900200005f
:1000580090020000281800009002000090020000a2
:100068009002000090020000900200001e1a00009a
:100078009002000090020000900200009002000030
:10008800900200009002000090020000ae190000eb
:100098009002000090020000900200009002000010
:1000a8009002000090020000900200009002000000
:1000b80090020000900200009002000090020000f0
:1000c80090020000900200009002000090020000e0
:1000d80090020000900200009002000090020000d0
:1000e80090020000900200009002000090020000c0
:1000f80090020000900200009002000090020000b0
:10010800900200009002000090020000900200009f
:10011800900200009002000090020000900200008f
:10012800900200009002000090020000900200007f
:10013800900200009002000090020000900200006f
:10014800900200009002000090020000900200005f
:10015800900200009002000090020000900200004f
:10016800900200009002000090020000900200003f
:10017800900200009002000090020000900200002f
:10018800900200009002000090020000900200001f
:10019800900200009002000090020000900200000f
:1001a80090020000900200009002000090020000ff
:1001b80090020000900200009002000090020000ef
:1001c80090020000900200009002000090020000df
:1001d80090020000900200009002000090020000cf
:1001e80090020000900200009002000090020000bf
:0801f8009002000090020000db
:020000040000fa
:10020800900200009002000090020000900200009e
:10021800900200009002000090020000900200008e
:10022800900200009002000090020000900200007e
:100238009002000090020000900200006619000081
:100248007a1900009002000090020000900200005d
:1002580090020000281800009002000090020000a0
:100268009002000090020000900200001e1a000098
:10027800900200009002000090020000900200002e
:10028800900200009002000090020000ae190000e9
:10029800900200009002000090020000900200000e
:1002a80090020000900200009002000090020000fe
:1002b80090020000900200009002000090020000ee
:1002c80090020000900200009002000090020000de
:1002d80090020000900200009002000090020000ce
:1002e80090020000900200009002000090020000be
:1002f80090020000900200009002000090020000ae
:10030800900200009002000090020000900200009d
:10031800900200009002000090020000900200008d
:10032800900200009002000090020000900200007d
:10033800900200009002000090020000900200006d
:10034800900200009002000090020000900200005d
:10035800900200009002000090020000900200004d
:10036800900200009002000090020000900200003d
:10037800900200009002000090020000900200002d
:10038800900200009002000090020000900200001d
:10039800900200009002000090020000900200000d
:1003a80090020000900200009002000090020000fd
:1003b80090020000900200009002000090020000ed
:1003c80090020000900200009002000090020000dd
:1003d80090020000900200009002000090020000cd
:1003e80090020000900200009002000090020000bd
:0803f8009002000090020000d9
:020000040000fa
:100800000008000066170000020000000000000061
:1008100000000000000000000000000000000000d8
:10082000009600000a0096000096000096009600d0
:1008300000960000960096000096000096002c009e
:100840000196000096002c0001960000960096008c
:10085000009600002c01960000960000960096007d
:100860000096000096009600009600009600960004
:1008700000960000960096000096000096009600f4
:1008800000960000960096000096000096009600e4
:10089000009600002c01960000960000960096003d
:1008a000002c01009600960000960000960096002d
:1008b00000960000960096000096000096009600b4
:1008c00000960000960096000096000096009600a4
:1008d0000096000096009600009600009600960094
:1008e000002c01002c019600009600009600960056
:1008f0000096000096009600009600009600960074
:100900000096000096009600009600002c019600cc
:100910000096000096009600009600009600960053
:100920000096000096009600000a000096009600cf
:10093000002c01002c019600009600009600960005
:100940000096000096009600009600009600960023
:100950000096000096009600009600002c0196007c
:100960000096000096009600002c0100960096006c
:10097000002c010058022c00019600009600960001
:1009800000960000960096000096000096009600e3
:1009900000960000960096000096000096002c003d
:1009a00001960000960096000096000096009600c2
:1009b0000096000096009600009600000a0096003f
:1009c000009600002c012c00019600009600960075
:1009d0000096000096009600009600009600960093
:1009e00000960000960096000096000096002c00ed
:1009f0000196000096009600009600002c019600db
:100a0000009600002c015800029600000a00960093
:100a10000096000096009600009600009600960052
:100a20000096000096009600009600009600960042
:100a3000002c010096000a00009600009600960027
:100a4000009600009600960000960000580258009c
:100a5000029600000a00960000960000960096009c
:100a60000096000096009600009600009600960002
:100a70000096000096009600002c010096000a00e7
:100a800000960000960096000096000096009600e2
:100a90000096000096009600002c0100960096003b
:100aa000002c0100a4d0a400440000002041a400b8
:100ab000d0a444000050c30047a4d000a4440000c8
:100ac00050c34700a4d0820044a4d000a444000036
:100ad00050c347000000c40044005000c34700005a
:100ae00050c347000000440044005000c3470000ca
:100af00050c34700a4d0820044005000c347000008
:100b000050c347000000440044005000c347a40005
:100b1000d02444000050c30047005000c3470000e9
:100b2000005c44000050c30047a4f000764400007d
:100b300050c347007b146900440000005c4400007f
:100b400050c347000000440044a4d000a444000067
:100b500000c444000000dc0044005000c3477100a2
:100b60009dae44000000c40044005000c347a400f0
:100b7000d0a444000050c30047a4d00082447b00ae
:100b8000d4924400a4f0760044005000c347a4006f
:100b9000d08244000050c30047005000c34700000b
:100ba000004444000050c30047a4d0002444000087
:100bb00050c347000050c300470000005c440000e1
:100bc00050c34700a4f0760044005000c3477b00a8
:100bd000146944000000dc0043005000c3470000db
:100be00000444400a4d0a40044000000c444000019
:100bf00000dc44000050c30047719d00ae4400007b
:100c000000c444000050c30047a4d000a444000026
:100c100050c34700a4d08200447bd4009244a40077
:100c2000f07644000050c30047005000c347000066
:100c300000c44400b8feb80044719d00ae44a40056
:100c4000909b44000050c30047a4d000a44400007f
:100c500050c3470066a64f00440000005c44a40057
:100c6000d08244000050c300470000005c44a40050
:100c7000d08244007bd4920044005000c34700005f
:100c800000c44400b8feb80044719d00ae44a40006
:100c9000909b44000050c30047a4d000a44400002f
:100ca00050c34700a4d0020045005000c347a40031
:100cb000d00245000000200041a4d0000245000001
:100cc00050c347000050c30047005000c347000016
:100cd00000c44400b8feb80044719d00ae44a400b6
:100ce000909b44000050c30047a4d000a4440000df
:100cf00050c3470066a64f00440000005c44a400b7
:100d0000d08244000050c300470000005c44a400af
:100d1000d08244007bd4920044005000c347a4001a
:100d2000909b44000050c30047005000c3477b0025
:100d3000d49244000050c30047a4d0008244000075
:100d400050c347000050c30047005000c347000095
:100d500050c347000000c40044b8fe00b84471000e
:100d60009dae4400a4909b0044005000c347a400e3
:100d7000d0a444000050c3004766a6004f440000c2
:100d8000005c4400a4d0820044005000c34700002f
:100d9000005c4400a4d08200447bd4009244000054
:100da00050c347000000c40044b8fe00b8447100be
:100db0009dae4400a4909b0044005000c347a40093
:100dc000d0a444000050c30047a4d0000245000056
:100dd00050c34700a4d00200450000002041a400f9
:100de000d00245000050c30047005000c347000038
:100df00050c347000000c40044b8fe00b84471006e
:100e00009dae4400a4909b0044005000c347a40042
:100e1000d0a444000050c3004766a6004f44000021
:100e2000005c4400a4d0820044005000c34700008e
:100e3000005c4400a4d08200447bd40092440000b3
:100e400050c34700a4909b0044005000c3470000db
:100e500050c347007bd4920044005000c347a40015
:100e6000d08244000050c30047005000c347000038
:100e700050c34700a4d08200440000002041a400d9
:100e8000d08244000050c30047a4d0008244000038
:100e900050c34700a4d08200447bd4009244000099
:100ea00050c34700a4d0a40044a4d0008244000052
:100eb00050c3470000005c004400000044440000b0
:100ec00050c347000050c30047a4d0008244000034
:100ed00000204100a4d0820044005000c347a40079
:100ee000d08244000050c30047a4d00082447b005d
:100ef000d4924400a4d0a40044005000c347000092
:100f000050c34700a4d08200440000002041a40048
:100f1000d08244000050c30047a4d00082440000a7
:100f200050c34700a4d08200447bd4009244000008
:100f300050c34700a4d0a40044a4d00082440000c1
:100f400050c3470000005c0044000000444400001f
:100f500050c347000050c30047a4d000a444000081
:100f600000204100a4d0a40044005000c347a400c6
:100f7000d0a444000050c30047a4d0008244a40081
:100f8000d0a444000050c30047000000c444000047
:100f900050c347000050c300470000004444000015
:100fa00050c347000050c30047010000000000008c
:100fb0000000000000000000000000000a00000027
:100fc0000000000000000000000000000000000021
:100fd0000000000000000000000000000000000011
:100fe0000000000000000000000000000000000001
:100ff00000000000000000000000000000000000f1
:10274000661f00000c0000000000000000000000f8
:020000040000fa
:102750000600fa00a0fe2f0060198800c002a80041
:10276000c802a800c842a8005001200080198800b3
:10277000f03f200060088800c16c20009140780084
:1027800000ceb30000c060002041b300cce6b7002b
:10279000c982a900d16c20009140780000ceb3001e
:1027a00000c060003041b300cde6b700c9a2a90067
:1027b000e16c20009140780000ceb30000c06000c2
:1027c0004041b300cee6b700c9c2a900f16c2000b9
:1027d0009140780000ceb30000c060005041b300cb
:1027e000cfe6b700c9e2a900cd42a9000000eb0086
:1027f000000c88000000eb00300c88000000eb00ab
:10280000600c88000000eb00900c8800416a2000fa
:102810009140780000ceb30000c060009040b3004b
:10282000a4e6b700816c20009140780000ceb30090
:1028300000c060003040b300c8e6b7007000200060
:10284000401188000000280000118800004420008a
:10285000101188008560a900000e20000019880072
:1028600080402000101988001010200020198800d6
:102870000000eb004019880085a0a90095a0a800e1
:102880000000eb00200c88000000eb00500c8800da
:102890000000eb00800c88000000eb00b00c88000a
:1028a0000000eb00100c88000000eb00400c8800da
:1028b0000000eb00700c88000000eb00a00c88000a
:1028c0000000eb00000c88000000eb00300c8800da
:1028d0000000eb00600c88000000eb00900c88000a
:1028e00060002000200c880060002000500c880050
:1028f00060002000800c880060002000b00c880080
:102900000000eb00300888000000eb008008880021
:1029100084e0a90094e0a8000000eb0050088800c3
:102920000000eb0090088800909923007008880050
:102930008500a9009500a8000000eb00a008880011
:102940000000eb00f008880090992300d008880070
:102950008760a9009760a8000000eb00c00888000d
:102960000000eb00000988008780a9009780a8007c
:102970009099230060088800c8a2a8006b60a80096
:102980006360a8008660a9009660a800c8a2a8009d
:102990006b60a8006360a800c8e2a8006ae0a80015
:1029a00062e0a800c8c2a900c942a9000000eb006b
:1029b000601688000000eb00d06d880021e3a800bd
:1029c00011e1a80013e1a9001fe1a80000003700f1
:1029d0002043a800206e80008000780080fb8000eb
:1029e000808f50001a003200d06d80000000e0009f
:1029f00017003200e06d80000000e00014003a0093
:102a000022fb8000206e80008040780000dd2000e6
:102a1000000041000148780021fb8000306e8000fa
:102a20000001780081804000c03a21000080400011
:102a3000020878000000eb00306e880080fb800008
:102a4000206e880020fb80000000e80020fb88004a
:102a500070408000c200dd00209f20000080400008
:102a60001001be000000200011b62400aef60700e1
:102a7000eff607000000e90070088800d06d8000c4
:102a80000000e0000b003a00cd42a9000000eb007e
:102a9000300c88000000eb00900c88000000eb0078
:102aa000000c88000000eb00600c88000000eb00c8
:102ab000306e8800d06d80000000e000940032008d
:102ac000e06d80000000e00091003a0080fb800093
:102ad000200798002e009000e30f500048003200bd
:102ae0002e009000e30f500007003e002e009000e3
:102af000e10f50001b0032002e009000e10f50004b
:102b000030003e000d0037002e009000e50f500011
:102b1000580032002e009000e50f500046003900aa
:102b20002e009000e60f50005e0032002e00900054
:102b3000e70f500067003200a5ff3700cd42a90023
:102b40000000eb00300c88000000eb00900c8800c7
:102b50000000eb00000c88000000eb00600c880017
:102b60009bff3700cd42a8000000eb00300c88002e
:102b70000000eb00900c880060088000000040001e
:102b80000080e80032002000110009000280d80017
:102b9000000c880060088000000040000080e80011
:102ba00032002000110009000280d800600c88006b
:102bb0002043a90040002000540207002043a80041
:102bc00083ff3700cd42a8000000eb00300c8800e6
:102bd0000000eb00900c88006008800000004000be
:102be0000080e80032002000110009000280d800b7
:102bf000000c88000000eb00600c880074ff3700b8
:102c0000cd42a8000000eb00300c88000000eb0073
:102c1000900c8800600880000000e800000c88002c
:102c2000600880006700b900670040004300de00d4
:102c3000600c880066ff3700cd42a8000000eb0062
:102c4000300c88000000eb00900c88000000eb00c6
:102c5000000c880060088000000040000080e80050
:102c600032002000110009000280d800600c8800aa
:102c700057ff3700cd42a8000000eb00300c880061
:102c80000000eb00900c8800600880000000e80065
:102c9000000c8800600880000000e800600c8800dc
:102ca0004bff3700cd42a800600880000000e8001c
:102cb000300c880060088000000040000080e800c0
:102cc00032002000110009000280d800900c88001a
:102cd0003fff3700cd42a8000000eb00900c8800b9
:102ce0000000eb00300c880060088000000040000d
:102cf0000080e80032002000110009000280d800a6
:102d0000000c88000000eb00600c880030ff3700ea
:102d1000d06d80000000e0002dff3200e06d8000eb
:102d20000000e0002aff320021e3a9002043a900af
:102d3000ff0107000000eb00e06d88000000eb00e1
:102d4000d06d8800cd42a8000000eb00300c880058
:102d50000000eb00900c880060088000000040003c
:102d60000080e80032002000110009000280d80035
:102d7000000c880060088000000040000080e8002f
:102d800032002000110009000280d800600c880089
:102d900060092000dd01070020fb8000000f7800a3
:102da000970037009e00780000dd20000080400082
:102db000104078000080fb0080fb880080fb8000d2
:102dc000100798001e009000e30f50003c003200f6
:102dd0001e009000e30f500007003e001e00900010
:102de000e10f5000110032001e009000e10f500072
:102df00024003e00720037001e009000e50f5000d6
:102e00004b0032001e009000e50f500039003900e1
:102e10001e009000e60f5000520032001e0090008d
:102e2000e70f5000570032006e003700cd42a80077
:102e30000000eb00300c88000000eb00900c8800d4
:102e400060088000000040000080e80032002000a0
:102e5000110009000280d800000c88006008800082
:102e6000000040000080e80032002000110009004e
:102e70000280d800600c880040002000a3010700f9
:102e800058003700cd42a8000000eb00300c88004d
:102e90000000eb00900c88006008800000004000fb
:102ea0000080e80032002000110009000280d800f4
:102eb000000c88000000eb00600c8800490037001f
:102ec000cd42a8000000eb00300c88000000eb00b1
:102ed000900c8800600880000000e800000c88006a
:102ee000600880000000e8000000d100600c88004d
:102ef0003c003700cd42a8000000eb00300c8800f9
:102f00000000eb00900c88000000eb00000c880033
:102f100060088000000040000080e80032002000cf
:102f2000110009000280d800600c88002d003700d5
:102f3000cd42a8000000eb00300c88000000eb0040
:102f4000900c8800600880000000e8000000d100bc
:102f5000000c8800600880000000e800600c880019
:102f600020003700cd42a800600880000000e80083
:102f7000300c8800600880000000e800900c880099
:102f800018003700cd42a8000000eb00900c88002c
:102f90000000eb00300c880060088000000040005a
:102fa0000080e80032002000110009000280d800f3
:102fb000000c88000000eb00600c8800090037005e
:102fc000cd42a9000000eb00300c88000000eb00af
:102fd000900c88000000eb00000c88000000eb0063
:102fe000600c88001e00780080004000c03a21007c
:102ff0000080400010007800440107001e0fe90027
:103000001e00e00067ff3d00cd42a8000000eb007d
:10301000300c8800600880000000e800900c8800f8
:10302000600880000000e800000c88000000eb0051
:10303000600c880080de2f00340107000000eb00e8
:10304000d06d88000000eb00e06d880060fe370066
:103050003600f800809fbe00821f78003400f80020
:1030600000002000a00188000200fa0085a0a9004d
:103070002043a9002003a900706e8000e90f5000d2
:1030800013003c0050fb8000800078000018800096
:103090000080400050fb880060fb800080007800ca
:1030a000101880000080400060fb880070fb8000ea
:1030b00080007800201880000080400070fb8800ad
:1030c000706e80000000e800706e88001700370006
:1030d00050fb8000a2002000110009000200d8006f
:1030e000406e880060fb8000a200200011000900f3
:1030f0000200d800506e880070fb8000a200200003
:10310000110009000200d800606e88000000eb008a
:1031100070fb880070fb800060fb880060fb800013
:1031200050fb880050fb8000706e8800b16d8000fd
:1031300030062000808f50001a003c00706e800026
:103140000000e00017003a00416e8000506e8000e1
:1031500080804000606e80000080400032002000cf
:10316000110009000200d800000f7800b06d800047
:10317000e10f500002003a001e007800c06d880088
:10318000c06d80001e0040002200200011000900d8
:103190000200d800c06d8800b06d80000000e8001b
:1031a000b06d8800d06d80000000e0003f0032006c
:1031b000b16d800030062000808f50003d0034004b
:1031c000706e80000000e0003a003a00c06d8000a0
:1031d000ea004000406e8000808f50000d003400f7
:1031e000c06d8000ea004000506e8000808f50006b
:1031f00008003400c06d8000ea004000606e80006e
:10320000808f5000030034007000200080fb880095
:1032100028003700406e800021032000808040009d
:10322000606e8000808f50000e003400606e800061
:103230002103200080804000406e8000808f50007d
:1032400008003400c06d8000ea004000506e80002d
:10325000808f500003003d001000200080fb88009c
:1032600014003700406e8000110420008080400070
:10327000606e8000808f500003003d002000200021
:1032800080fb88000b003700606e80001104200076
:1032900080804000406e8000808f500005003d001f
:1032a0004000200080fb8800020037000000eb0097
:1032b00080fb88000080fa003400f9004f0178009c
:1032c0004f00be003600f900004006003400f80050
:1032d000881f780008002000a80188004f047800ab
:1032e0000000fa0084e0a9000080fa003400f90030
:1032f00000400600809fbe00821f78003400f80066
:1033000000002000a00188000000fa008500a9004c
:10331000ccc2bf000080fb004600de0061406000c0
:1033200000c0ea0061406000614060004601dd00cd
:10333000c12c200091407800f0cbb30000c06000a9
:1033400002407000cce2b7000080fa003400f900bf
:103350004f0178004f00be00004006003600f80024
:10336000809fbe00829fbe00849fbe00869fbe00dd
:103370003400f80000002000a00188000000fa00de
:1033800040fb80000000e80040fb8800306e8000b9
:103390000000e800306e88008760a900704080005f
:1033a00080004000008120000080400090007800f4
:1033b00040408000808f500015003c000000eb0072
:1033c00040408800704080000000e800120f20009c
:1033d000110009000200d8008000fd007040880044
:1033e00070408000c200dd00209f2000008040006f
:1033f0001001be000000200011b624004af40700ae
:103400008bf407000000e900700888000300370013
:10341000404080000000e800404088000080fa0042
:103420003400f9004f03be004f02be004f01be0042
:103430004f00be003600f90000400600809fbe002d
:10344000821f78003400f80000002000a0018800ee
:103450000000fa008660a900cac2bf000042b200a4
:103460000004e0000e003a0013c1bf000080fb0022
:103470004700de0000c0ea0061406000c700dd00d8
:1034800013c1bf000074a1000140700013e1b70038
:10349000d06d80000080ea00d06d880016003700f3
:1034a000cac2bf0001c8b300014060000004e000d0
:1034b00011003a0010002000e06d88000000eb00d1
:1034c00080fb880022fb8000206e80008040780016
:1034d00000dd2000000041000148780021fb800051
:1034e000306e80000001780081804000c03a2100e9
:1034f00000804000020878000080fa003400f900e3
:103500004f0178004f00be00004006000200fa00a4
:10351000000f78000000eb0040fb880040fb8000bb
:103520009e0f5000fdff39000080fa0000000600e9
:103530000000fa00cd42a9000000eb00300c88002a
:103540000000eb00900c88000000eb00000c8800ed
:103550000000eb00600c8800401f2000ebff07001c
:10356000cd42a800600880000000e800300c880010
:10357000600880006300b900630040004200de0084
:10358000900c880080112000e0ff0700cd42a900c8
:103590000000eb00300c88000000eb00900c88006d
:1035a0000000eb00000c88000000eb00600c8800bd
:1035b000401f2000d5ff0700cd42a8006008800012
:1035c0006300b9004200de00300c88000000eb0010
:1035d000900c88000000eb00000c88006008800060
:1035e0000000d100600c8800e02e2000c7ff07001b
:1035f000cd42a9000000eb00300c88000000eb0079
:10360000900c88000000eb00000c88000000eb002c
:10361000600c8800401f2000bcff07000080fa00fb
:0436200000000600a0
:00000001FF
