:020000040000fa
:080000000002040000000000f2
:020000040000fa
:100400008f8020000e7f22000e0188000000000077
:100410000c000700408820000100200011000700a8
:10042000000020000000e000020032000000020096
:100430000000000096020200000000000040da0008
:100440000000fe004440a900200020000000e00061
:100450000300320000002000a00188004440a800f2
:100460000000060091018800800078000000eb0089
:1004700015003700e280400032a0b4009101ba00bc
:10048000e280400032a0b4009102ba00e280400055
:1004900032a0b4000002eb00472bde00f507b200eb
:1004a000602ce10004003a000059eb008301e900f0
:1004b000fdff3e00040037006128e100010032002a
:1004c0000082eb00040007001101ba000200e00006
:1004d000e8ff3a00000006003159ba008301e90044
:1004e0000c0032002159ba008301e90008003200f3
:1004f0000400e00003003a00e280400032a0b400b3
:10050000f5ff370011d9ba008301e900faff3a007c
:100510008100e800e180400032a0b4000000060045
:080520000040da000000fe00bb
:020000040000fa
:020000040001f9
:0457f800ad7b000085
:020000040000fa
:020000040001f9
:0457fc003f3f00002b
:020000040000fa
:1000080090020000900200009002000090020000a0
:100018009002000090020000900200009002000090
:100028009002000090020000900200009002000080
:100038009002000090020000900200009002000070
:020000040000fa
:020000040000fa
:0405280000000000cf
:020000040000fa
:10052c001400fa000000eb00400798000000eb00fc
:10053c00300798000000eb00200798000000eb004b
:10054c00100798000000eb00000f78007a020700fb
:10055c001f010700b50207000000370086c0bf006e
:10056c00684060000004e000fcff32001e00e00068
:10057c0013013a001e009000100f98009e08900086
:10058c00e28f5000500032001e089000e20f500025
:10059c0007003c009e0890000100e0000e003200b5
:1005ac001e089000e10f50002900320001013700b5
:1005bc009e089000e48f50007f0032001e089000cf
:1005cc00e40f50005e0035009e089000e58f50004f
:1005dc0097003200f700370011010700604f9800b8
:1005ec006e489000e14f4000f2003200ee4890005f
:1005fc00a0c2b30080cf5000ee003200ee48900055
:10060c00f0c2b30080cf5000ea003200ee489000f8
:10061c00b0c2b30080cf5000e6003200ee4890002c
:10062c00d0c2b30080cf5000e20032008040eb001b
:10063c000040eb00870207006e4890009a0207000a
:10064c001e0090000000e80010079800d900370049
:10065c00f3000700404f98004e489000e14f4000d7
:10066c00d4003200ce489000a0c2b30080cf50001e
:10067c00d0003200ce489000f0c2b30080cf5000c2
:10068c00cc003200ce489000b0c2b30080cf5000f6
:10069c00c8003200ce489000d0c2b30080cf5000ca
:1006ac00c400320011c0b3000040eb006902070027
:1006bc004e4890007c0207001e0090000000e800ed
:1006cc0010079800bb003700d5000700204f98009a
:1006dc002e489000e14f4000b6003200ae4890002a
:1006ec00a0c2b30080cf50000c003200ae48900086
:1006fc00f0c2b30080cf500008003200ae4890002a
:10070c00b0c2b30080cf500004003200ae4890005d
:10071c00d0c2b30080cf5000a6003a0021c0b30075
:10072c000040eb004b0207002e4890005e020700d1
:10073c001e0090000000e800100798009d00370094
:10074c00b7000700504f98005e489000e14f400002
:10075c0098003200de489000a0c2b30080cf500059
:10076c0094003200de489000f0c2b30080cf5000fd
:10077c0090003200de489000b0c2b30080cf500031
:10078c008c003200de489000d0c2b30080cf500005
:10079c008800320031c0b3000040eb002d0207008e
:1007ac005e489000400207001e0090000000e80028
:1007bc00100798007f00370099000700304f980011
:1007cc003e489000e14f40007a003200be48900055
:1007dc00a0c2b30080cf500076003200be4890001b
:1007ec00f0c2b30080cf500072003200be489000bf
:1007fc00b0c2b30080cf50006e003200be489000f3
:10080c00d0c2b30080cf50006a00320041c0b300a8
:10081c000040eb000f0207003e4890002202070048
:10082c001e0090000000e8001007980061003700df
:10083c006e4890000000fb006a00b9008000780050
:10084c004e4890000000fb008080400000df2f002d
:10085c0000804000400798005e4890000000fb00bc
:10086c006a00b900800078003e4890000000fb0050
:10087c008080400000df2f0000804000300798008f
:10088c002e4890000000fb00000f9800b0022000e2
:10089c008e089000808f50002d003200b002200096
:1008ac008e089000808f500005003c00a0022000b4
:1008bc008e089000808f50000a0032003d003700f7
:1008cc00d00220008e089000808f50002d00320046
:1008dc00f00220008e089000808f50000e00320035
:1008ec0034003700ce0090003e0090000088b90024
:1008fc00200798008040eb0010c0b300d501070022
:10090c002e009000800078004029280000804000d4
:10091c00ed010700270037004e0090003e019000cb
:10092c00110009000200d800200798008040eb005d
:10093c0010c0b300c70107002e00900080007800a3
:10094c004029280000804000df0107001900370013
:10095c00ce0090003e0090000080400020079800e0
:10096c008040eb0010c0b300ba0107002e009000cd
:10097c00800078004029280000804000d201070048
:10098c000c003700ce0090003e009000008050001c
:10099c00200798008040eb0010c0b300ad010700a9
:1009ac002e00900080007800402928000080400034
:1009bc00c501070010002000000f7800020037006e
:1009cc000000eb00000f78008660a900e3fe370002
:1009dc000000fa00c802a900c002a900c842a90080
:1009ec00c022a800c942a800c862a800c822a8005a
:1009fc006860a8006a00a80068e0a80068a0a800c9
:100a0c006060a8006200a80060e0a80060a0a800d8
:100a1c008660a900c8a2a8000080fa0000000600a9
:100a2c000600fa0000c0eb00204798000000eb0025
:100a3c00004088000000eb00000f78000040eb0045
:100a4c0003e8b7000000eb00000f78000800370047
:100a5c001e007800d3000700218020009140780010
:100a6c001e0078001c000700204798001e0fe800ad
:100a7c00200020009e0f1000f5ff34002e40900047
:100a8c0002e8b70040002000c600070000408000cc
:100a9c00e10f500004003a002e4090000000fb00d3
:100aac002007980009003700004080000000e0009b
:100abc0004003a0002c8bf000000fb0020079800a9
:100acc000200370070032000200798002e009000d1
:100adc000080fa00000006000600fa00000f780003
:100aec00214798001e00e00037003a00c2c2bf0048
:100afc00624060000004e00005003a000040800005
:100b0c000000e8000040880010c3b30003e8b70001
:100b1c00cbc2bf00644060000004e00005003a0056
:100b2c00004080000000e8000040880040c3b30093
:100b3c0003e8b700cac2bf00684060000004e000d0
:100b4c0005003a00004080000000e80000408800ea
:100b5c0070c3b30003e8b700cac2bf0062406000b4
:100b6c000004e0000a003a00cac2bf000042b20012
:100b7c000004e00006003200004080000000e800a5
:100b8c0000408800a0c2b30003e8b7007200370031
:100b9c00cac2bf00624060000004e0006e003a0070
:100bac00cac2bf000042b2000004e0006a003a0072
:100bbc00004080000000e80000408800f0c2b30054
:100bcc0003e8b70064003700100020009e0f1000ef
:100bdc0025003a00c2c2bf00624060000004e00081
:100bec0005003a00004080000000e800004088004a
:100bfc0020c3b30003e8b700cbc2bf006440600061
:100c0c000004e00005003a00004080000000e8000d
:100c1c000040880050c3b30003e8b700cac2bf004d
:100c2c00684060000004e00005003a0000408000cd
:100c3c000000e8000040880080c3b30003e8b70060
:100c4c00cac2bf00624060000004e00042003a00eb
:100c5c00004080000000e8000040880000c3b300a2
:100c6c0003e8b7003c003700200020009e0f100066
:100c7c0037003a00c2c2bf00624060000004e000ce
:100c8c0005003a00004080000000e80000408800a9
:100c9c0030c3b30003e8b700cbc2bf0064406000b0
:100cac000004e00005003a00004080000000e8006d
:100cbc000040880060c3b30003e8b700cac2bf009d
:100ccc00684060000004e00005003a00004080002d
:100cdc000000e8000040880090c3b30003e8b700b0
:100cec00cac2bf00624060000004e0000a003a0083
:100cfc00cac2bf000042b2000004e000060032008d
:100d0c00004080000000e80000408800b0c2b30042
:100d1c0003e8b70010003700cac2bf006240600091
:100d2c000004e0000c003a00cac2bf000042b2004e
:100d3c000004e00008003a00004080000000e800d9
:100d4c0000408800d0c2b30003e8b70002003700af
:100d5c000040eb0003e8b70000408000e10f5000ba
:100d6c0004003a0003c8bf000000fb0020079800f5
:100d7c0009003700004080000000e00004003a0049
:100d8c002e4090000000fb00200798000200370066
:100d9c000080eb00200798002e0090000080fa00e5
:100dac00000006000200fa00000f78001e00e000b0
:100dbc0004003a00cc02a900c402a800cc42a8004e
:100dcc0011003700100020009e0f100004003a00a4
:100ddc00cc02a800c402a900cc42a8000a0037002b
:100dec00200020009e0f100004003a00cc02a80046
:100dfc00c402a800cc42a90003003700cc02a90011
:100e0c00c402a900cc42a9000080fa000000060030
:100e1c000200fa00000f78001e0078006e00b90086
:100e2c00600888000000eb003008880001112000e9
:100e3c0091407800f0ccb30000c0600010e1b70026
:100e4c0084e0a90011e1a80084c0bf0001c8b30070
:100e5c00014060000004e000fbff320011e1a9003a
:100e6c0084e0a9000080fa00000006000400fa00eb
:100e7c00004f7800110798009e40780061c0600018
:100e8c00c700dd00ccc2bf000074a100014070009f
:100e9c00cce2b7001e009000ddff0700ccc2a8001a
:100eac001e009000daff0700ccc2a9001e009000c3
:100ebc00d7ff07000080fa00000006000800fa00c7
:100ecc002047980021079800320798002e40900088
:100edc000080fb00000f780061168000f0ff2000fe
:100eec0080806000000f20001e0060004800dd00c4
:100efc0000807000601688002e009000be009000ec
:100f0c00daff070061168000f0ff2000808060008f
:100f1c001e0178006f0061004c00dd000080700045
:100f2c00601688002e009000be009000cfff0700d6
:100f3c000080fa00000006000000fa000080eb00c0
:100f4c0060198800c9e2a900c9c2a900c9a2a900f8
:100f5c00c982a900c8e2a900c8c2a9006116800014
:100f6c00f0ff20000080600060168800cce2a90031
:100f7c00ccc2a90080a92300a5ff07006116800040
:100f8c00f0ff2000808060000000230000807000d3
:100f9c0060168800410021000040eb00b3ff070001
:100fac0061168000f0ff20008080600000002300ac
:100fbc000080700060168800410620000040eb00a5
:100fcc00aaff0700420620008000eb0020c3b300fc
:100fdc00baff0700820220008000eb0080c2b30041
:100fec00b6ff0700820220008000eb0080c0b30037
:100ffc00b2ff0700826620008000eb0010c0b30037
:10100c00aeff0700820220008000eb0060c0b3003e
:10101c00aaff0700820220008000eb00c0c0b300d2
:10102c00a6ff07000080fa00000006000000fa008e
:10103c00826620008000eb0010c0b3009fff070009
:10104c008000eb000000eb00020007000080fa00bb
:10105c00000006000400fa00204798003147980071
:10106c002e4090000004e00005003a003e40900045
:10107c0001c8b30001404000004f78000400370065
:10108c003e40900001ccb30001404000004f78007e
:10109c00820220008000eb001e40780087ff0700d2
:1010ac000080fa00000006000200fa00004f7800f1
:1010bc001e407800e2022000110020007fff070094
:1010cc000080fa00000006000200fa00000f780011
:1010dc00040037001e007800104078001e0fe80056
:1010ec00f1ff07001e007800104078000004e000bb
:0c10fc00f8ff3a000080fa000000060037
:020000040000fa
:1011080000080000020000000200000000000000cb
:1011180002080000020000000000000004080000af
:101128000200000002000000300000000608000075
:1011380002000000020000000000000000000000a3
:00000001FF
