:020000040000fa
:080000000002040000000000f2
:020000040000fa
:100400000f9020000e7f22000e01880000000000e7
:100410000c000700802e21000100200011000700c1
:10042000000020000000e000020032000000020096
:1004300000000000d00b0200000000000040da00c5
:100440000000fe004440a900c00020000000e000c1
:100450000300320000002000a00188004440a800f2
:100460000000060091018800800078000000eb0089
:1004700015003700e280400032a0b4009101ba00bc
:10048000e280400032a0b4009102ba00e280400055
:1004900032a0b4000002eb00472bde00f507b200eb
:1004a000602ce10004003a000059eb008301e900f0
:1004b000fdff3e00040037006128e100010032002a
:1004c0000082eb00040007001101ba000200e00006
:1004d000e8ff3a00000006003159ba008301e90044
:1004e0000c0032002159ba008301e90008003200f3
:1004f0000400e00003003a00e280400032a0b400b3
:10050000f5ff370011d9ba008301e900faff3a007c
:100510008100e800e180400032a0b4000000060045
:100520000040da000000fe000a00fa0080017800b6
:10053000e20f500028003e00f0478000e10f50001d
:1005400008003200802320000000e0000500320097
:10055000042320002523200046232000800178006a
:10056000040037000422200025222000462220001b
:1005700083222000144090000004e00004003500b5
:100580008009eb00144090000074a0001042980015
:10059000154090000028a30003003a001540900089
:1005a0000024a000904298008001eb000700370073
:1005b000154090000008a300fdff320063c07800e2
:1005c0000000fb00000b78008301e800828f5100df
:1005d000f7ff3a000800370030002000b0bf9f004e
:1005e000c3bf9f00d1bf9f00e2bf9f006a8057003a
:1005f00000c0da006fb99700020078000080fa00ae
:1006000000000600881f7800000478005001be003a
:100610004000be00040040008580480006014900fb
:1006200087814900009cbe000294be000400e100e6
:100630000588e1000690e1000798e1000200310022
:10064000680044001008e8004f047800000006002d
:10065000f4874700889fbe008a9fbe008c9fbe0023
:100660008e1f78000205be000004be00d4b79f00b4
:10067000e5b79f00f6b79f0087bf9f000000eb0023
:10068000c0b79f00b0b79f00a0b79f0090b79f0072
:1006900080b79f000d042000bfb097004fb09700b7
:1006a000000140000000e0000f003d004f08de00a8
:1006b00000007100c0b79f009e00070001003d00d0
:1006c00012002000a100070001003d0012002000e0
:1006d000a6000700b1000700b60007000f004000a9
:1006e000c8ff0700220037004f08de000006710037
:1006f000ccb79f008f00070001003d0012002000d2
:100700009200070001003d00120020009700070042
:10071000a20007000fb297009fb297002fb3970077
:10072000bfb39700a90007000000520081805a0063
:1007300002015b0083815b0080b79f0091b79f003f
:10074000a2b79f00b3b79f000007eb009f00070010
:100750000020e10001a8e10002b0e10003b8e100df
:10076000010031001e0020000e005600c0b79f009f
:100770004fb297000400e000070035001000200091
:10078000010020006011b800080470008984700026
:100790000a0571008b8571008d06e900beff3a00e5
:1007a0000400e00003003d00820007000f0040004d
:1007b00094ff07004fa897000000e00004003a00f3
:1007c0000fb497009fb497002fb59700bfb597005f
:1007d000940007004f0778004f06be004f05be008b
:1007e0004f04be004f01b10000000600881f7800d2
:1007f00018002000881f780095ff07008f87e90008
:100800004f04780000000600801feb0090ff0700f7
:100810008f87e90000000600889fbe008a9fbe0007
:100820008c1f78006e00070007003d007300070072
:10083000e00f5b00e08f5b0007003d003200070027
:100840000006eb00040037003400070002003d0002
:100850002a0007001c00200072000700e3ff0700c9
:100860000203be000002be000c00e00001003200e6
:10087000220007000400be000601be004f067800fb
:100880004f05be004f04be0000000600889fbe005a
:100890008a9fbe008c1f78005100070005003d00b4
:1008a00056000700e00f5b00e08f5b0006003d0094
:1008b000040037001900070003003d006000b80085
:1008c0006011b8001000070056000700ceff0700b7
:1008d0000203be000002be000c00e0000100320076
:1008e000060007000400be000601be004f067800a7
:1008f0004f05be004f04be00000006006000b800b7
:100900006011b800000037000402500085825800d2
:100910000603590087835900000006000006eb001b
:10092000e00f5200e08f5a00e00f5b00e08f5b00a9
:10093000000006000180400090b79f000001eb001e
:100940008fb097000100e000000006000200700078
:1009500090b79f000180400080b79f000001eb002e
:10096000ffa897000100e0000000060002007000f0
:1009700080b79f00018040006faa9700cf20de0063
:1009800001007000f0af9f00040242002500070044
:100990004f18de000002720000000600e4af9f0066
:1009a0000804440089844c000a054d008b854d00e5
:1009b000000006003fb29700cfb297005fb39700e8
:1009c000efb3970000fe2f00000006003fb0970035
:1009d000cfb097005fb19700efb19700000006001d
:1009e0000205be000004be00e00f5000e08f58007a
:1009f000e00f5900e08f5900000006006000b800c9
:100a00006011b80008045000898458000a05590094
:100a10008b8559001c002000e00f5200e08f5a0027
:100a2000000006000800be000a01be00000006002b
:100a30000c00fa00889fbe0000047800cfb0970039
:100a4000f0ff2700d0bf9f008004eb0099bf9f00fc
:100a500088bf9f00a8bf9f00200c2000b0bf9f0050
:100a60007881570070805700080007000fb8970082
:100a7000094878000fb89700080450000800780073
:100a80004f04be000080fa0000000600fe87470009
:100a9000889fbe008a9fbe008c9fbe008e1f78007c
:100aa000f0b79f000107780082bf9f000000eb00b5
:100ab000a0b79f009f0237008006eb0050c2b30032
:100ac00080cf5000090032000100fb00ffb097000a
:100ad000a3020700e10f400096023200afb097007a
:100ae0008100e800a1b79f00920237009e40780085
:100af000d0c2b30080cf50000c00320007003c0091
:100b00006d40500080cf50000a0032006b40400022
:100b100080cf50000e003a000800370000c3b30039
:100b200080cf50000a003a00060037000d30a000c8
:100b3000050037000d00a000030037000d10a000d5
:100b4000010037000d20a0000e07e800e7ff370086
:100b50000d18a300010032000d00a1000d38a30004
:100b6000010032000d20a1000100fb0002fd2f005a
:100b700002004000e90f50000e003e000002eb00b2
:100b8000c4b79f0082017800cfb297006a28b900ed
:100b90001e01fb000001410003014100c2b79f009c
:100ba0005e00fb0003004000e90f50000b003e0018
:100bb000f5ff37000006eb00ccb79f00a0c2b300e2
:100bc00080cf500005003a000fb89700c0007800b1
:100bd00080bf9f00c1b79f000e07e8000001eb0037
:100be000b2b79f00e0c2b3009e4f100018003a0059
:100bf0000de0a0008e00e80064405000914f10000e
:100c000002003200010778000c0037000fba97008d
:100c1000c402780084bf9f00b5b79f000e87e8002c
:100c20000b0037003fb697006a60b9000000410032
:100c300003004000b0b79f000e07e8001e01fb0054
:100c400003fd2f0003004100e90f5000f5ff3600bf
:100c5000be407800e1d79f00c0c6b30080cf5000ef
:100c6000220032000f003c006940500080cf50004d
:100c70007700320004003c000104e0003102320041
:100c80006b4050000f00370040c6b30080cf5000cb
:100c9000930032006540400080cf50008b003a0046
:100ca0008f00370030c7b30080cf50001a003200e9
:100cb00007003c006440500080cf5000110032001b
:100cc0000040e80080cf500080003a000f0037005d
:100cd00050c7b30080cf5000800032006340400016
:100ce00080cf500079003a0009003700000028004a
:100cf0000d48a30001003a00000120008086760024
:100d0000d3ff37000d60a000750037000d50a00024
:100d10000d70a000720037008fb897004100780076
:100d200081bf9f00000478000000e00001003a004d
:100d3000888a20008004eb00010037008104e8006d
:100d400089007800088044001004e000fbff3a00ae
:100d50003fb197000200e00003003200890f51000c
:100d600001003100820478000002eb00e4af9f0034
:100d7000cfb29700898f52000200360009805200de
:100d8000e0af9f004368de00e10660001b003a0010
:100d90000d06780009003700ffb097000002200020
:100da000ef010700e10f4000030032002fb0970071
:100db0000000e800a0b79f000c06e800efa897002d
:100dc000810f5600f4ff3a000081eb00e2af9f0074
:100dd0000a003700880078003100fb000104780029
:100de000ffb09700de010700e10f40000300320072
:100df0002fb297000402e800a4b79f000900e900a1
:100e000080047800e10f4000f2ff3a000006eb009a
:100e10000d00e0000a003a00c6013700ffb097005d
:100e200000022000ce010700e10f40000300320065
:100e3000afb297008502e800a5b79f000c06e80056
:100e40006fa89700800f5600f4ff3a00b9013700f1
:100e50008fb897004100780081bf9f00cf80de00ef
:100e600001017800820178000205be000004be0086
:100e70000203be000002be004822de00482edd0054
:100e800004027600e4d79f000d48a3000a00320058
:100e90000404e00008003200e14f42000600320086
:100ea00071fd2f0001804700044878001840980029
:100eb0002900200002003700f0d79f001900200011
:100ec00072fd2f0002844700a1ff370064fd2f0050
:100ed00004844700190020009dff37000d0cb3006b
:100ee0000d007800000cb20028003a000d00e00070
:100ef00005003d008fba97004505be004504be00c1
:100f000085bf9f00140037000d48a3000b0032007e
:100f10000fbe97004c00be008cbf9f004f89de00c3
:100f2000cf91de000002be00020378008203780049
:100f30000605be000404be00070037008fb8970006
:100f40004100780081bf9f0000047800cfc4de001c
:100f5000090578008a057800e00f5400e08f5c00f6
:100f6000e00f5d00e08f5d001f003d003d00b3001d
:100f70006000b8006011b80008045000898458006f
:100f80000a0559008b855900170037000d00e00055
:100f900005003d000fb997004205be004204be00a7
:100fa00082bf9f00100037000d48a30007003200e9
:100fb0000fba97004400be0084bf9f006011b800c4
:100fc0000205be000004be00070037008fba97007c
:100fd0004500780085bf9f000004780009002000cc
:100fe0000a0020000b0020003fb697000c00e00034
:100ff00007003a00e00f5400e08f5c00e00f5d0056
:10100000e08f5d0002003a0010002000b0b79f00a2
:101010008d007800010cb200e1b79f0000042000b1
:10102000808f50003000320003003c000100e000df
:101030000800320040003700000820006fb1970020
:10104000800f510014003200000c2000800f51006e
:1010500039003a0014c0b300858020000b0037002f
:101060000400fb004300dd00050040005001be000d
:101070004000be000040e10001c8e10002d0e100f4
:1010800003d8e1002b0039000442e800f44f52007d
:10109000f3ff3a0027003700000120000100200084
:1010a0006011b80014c0b3000040e10001c8e100c5
:1010b00002d0e10003d8e1001e0039004500200005
:1010c0000000d0008180d2000281d2008381d20052
:1010d0008502e900faff3a000442e800f04f5200ae
:1010e000f1ff3a00130037008000200001002000cb
:1010f0006011b80014c0b3000040e10001c8e10075
:1011000002d0e10003d8e1000a0039003c002000d1
:101110000000d0008180d2000281d2008381d20001
:101120000c06e900faff3a000442e800f54f5200cd
:10113000f1ff3a00e4d79f00efd097000100fb00d9
:101140003fb19700820f500002003d00e2d79f00a0
:10115000040037003fb29700800f520001003d00ad
:10116000b0b79f00cfb297000500e0000400320046
:1011700063806600020032008502e900c5b79f0067
:101180000de8a3000b0032004fb697003fb0970068
:10119000800f560003003c008000eb00c1b79f00a9
:1011a000040037004fb197003fb29700040151008f
:1011b000c2b79f00efd297000500fb000006eb00ce
:1011c000dcaf9f00cfb09700808f5000020034004a
:1011d00000805000d0af9f000d28a30037003200e0
:1011e000e18066000d18a3000c003200d002200040
:1011f0000100e00001003a000080e900ffb0970024
:10120000d7000700e10f40000e0032002fb1970019
:101210000201e800a2b79f000a0037000100e000c9
:1012200008003200ffb0970000022000cc00070049
:10123000e10f4000030032002fb297000402e800e3
:10124000a4b79f00dfaa97000500e0000f0032005e
:101250000006eb00ffb0970000032000c00007006d
:10126000e10f4000030032002fb097000000e800bb
:10127000a0b79f000c06e800dfa89700810f56007a
:10128000f4ff3a000001eb00d2af9f003fb297009d
:10129000c320dd00008020008080400091b79f00c7
:1012a0004220dd006400500080b79f006320b90039
:1012b000f0af9f006306500084003700dfaa97005c
:1012c0000500e00011003200688066000f003a005f
:1012d00000067800ffb0970000022000a000070081
:1012e000e10f4000030032002fb097000000e8003b
:1012f000a0b79f000c06e800dfa89700810f5600fa
:10130000f4ff3a000001eb00d2af9f00e1806600dd
:101310000d18a3000c003200d00220000100e000f4
:1013200001003a000080e900ffb097008c00070040
:10133000e10f4000d5ff32002fb297000402e80011
:10134000a4b79f00d1ff37000100e000cfff3200bb
:10135000ffb097000002200081000700e10f40006d
:10136000caff3200afb297008502e800a5b79f0020
:10137000c6ff370000042000efb09700808f5000b8
:101380003100320003003c000100e00008003200a0
:101390003e003700000820006fb19700800f510019
:1013a00011003200000c2000800f510037003a007d
:1013b0001fb097003002be002003be000800be0030
:1013c0000a01be0009fd0700a4002000050020005e
:1013d0006033b8000cfd070004c3b30004424000b2
:1013e000e4d79f0029003700f58a2000d5b79f0079
:1013f0000d58a30002003a00008c2000d0b79f00d7
:1014000014002000050020006033b8008fb0970062
:101410008100e900050033000402d0008582d2007b
:101420000683d2008783d200f9ff37000800be0090
:101430000a01be00edfc07006f0060005fb197007d
:1014400062407800100037001400200005002000e2
:101450006033b8000c0078000000e900050033009c
:101460000402d0008582d2000683d2008783d20096
:10147000f9ff37000800be000a01be00dbfc0700d0
:10148000674060000043b000e0d79f00efd09700b6
:101490000100fb00ffb0970031000700e10f4000a2
:1014a000030032002fb197000201e800a2b79f00ad
:1014b0001fb297006802520094b79f008fb2970046
:1014c000e482520085b79f0063065600d0ff2f00cc
:1014d0003fb197000090b9007faa9700000042003a
:1014e00063005000800f5600a2ff3a000d38a300a1
:1014f00010003200dfaa97000500e0000d00340064
:101500000006eb00ffb09700000220001400070067
:10151000e10f4000030032002fb097000000e80008
:10152000a0b79f000c06e800dfa89700810f5600c7
:10153000f4ff3a00be407800e1d79f000104e000cc
:101540005dfd3a002fb097004f0778004f06be00b0
:101550004f05be004f04be00ef01b10000000600c1
:10156000889fbe000001780001047800b10090005f
:101570000118a3003d0032000198a30003003a00c7
:10158000180090000000e00038003a000190a00030
:101590003104980082047800f90fb200180090001e
:1015a0000000e00002003a0028009000000c7800e3
:1015b000ea8f540006003a00380090000078a3003b
:1015c00003003a0088007800d0002000e4ff070004
:1015d0009800900058009000808f50000b0032005f
:1015e0000100e800100498001800780009587800fd
:1015f000000c780011c0b300c08f200001487800b3
:10160000ea8f540006003200190037008800780085
:1016100009407800190007008004780014003700a2
:10162000380090000088a3001100320018019000db
:10163000a800900048009000bbfb070098009000b5
:10164000810f500004003200380090000003b30006
:10165000300498008084eb000000eb001004980038
:1016600028009000000c7800010037008084eb0017
:10167000090078004f04be00000006000200fa00d6
:10168000889fbe00a0ff9f0001047800b100900079
:10169000810478000904b200020032000000fb005f
:1016a000360037000118a30005003a000103b3001b
:1016b00031049800190498000080eb002f003700d7
:1016c000580090000000e00006003a00480090003a
:1016d00012002000e680570093fb070019049800d1
:1016e00024003700280090000000e00008003a00c5
:1016f000808f200020049800000c7800200020003b
:1017000050049800100498000130a00031049800a3
:1017100018019000a80090004800900082fb07008c
:1017200028009000000c78000080eb001004980066
:1017300018007800aff8970001587800000c780086
:101740002ff89700ea4f50000a003a003800900046
:101750000088a3000700320018019000a800900044
:101760004800900070fb070019049800a800900042
:10177000010c7800aff897000100fb004f04be0099
:081780000080fa0000000600e1
:020000040000fa
:020000040001f9
:0457f800ad7b000085
:020000040000fa
:020000040001f9
:0457fc003f3f00002b
:020000040000fa
:1000080090020000900200009002000090020000a0
:100018009002000090020000900200009002000090
:100028009002000090020000900200009002000080
:100038009002000090020000900200009002000070
:020000040000fa
:020000040000fa
:101788002564000000440000697600002062000023
:08179800792000003000000080
:020000040000fa
:1017a0002600fa000000eb00100f98000000eb008c
:1017b000000f98000000eb00700798000000eb009d
:1017c000600798000000eb00500798000000eb0055
:1017d000400798000000eb00300798000000eb0085
:1017e000200798000000eb00100798000000eb00b5
:1017f000000f780005030700aa0107004003070057
:101800000000370086c0bf00684060000004e000b0
:10181000fcff32003e0090000000e000ae003a0005
:101820004e00900020179800ae109000e28f5000fc
:101830004d0032002e119000e20f510007003c00d5
:101840002e1090000000e0000b003200ae1090005f
:10185000e18f5000260032009c0037002e119000ce
:10186000e30f51005e0032002e109000e40f500094
:1018700079003200950037009e010700005f980054
:101880000e589000e14f4000900032008e589000ba
:10189000a0c2b30080cf50008c0032008e58900060
:1018a000f0c2b30080cf5000880032008e58900004
:1018b000b0c2b30080cf5000840032008e58900038
:1018c000d0c2b30080cf5000800032008040eb00d7
:1018d0000040eb00140307000e5890002703070098
:1018e0004e0090000000e8004007980077003700a5
:1018f00080010700605798006e509000e14f400053
:1019000072003200ee509000a0c2b30080cf5000b1
:101910006e003200ee509000f0c2b30080cf500055
:101920006a003200ee509000b0c2b30080cf500089
:1019300066003200ee509000d0c2b30080cf50005d
:101940006200320011c0b3000040eb00f602070055
:101950006e509000090307004e0090000000e80060
:10196000400798005900370062010700405798006f
:101970004e509000e14f400054003200ce50900095
:10198000a0c2b30080cf50000c003200ce509000b7
:10199000f0c2b30080cf500008003200ce5090005b
:1019a000b0c2b30080cf500004003200ce5090008f
:1019b000d0c2b30080cf500044003a0021c0b30031
:1019c0000040eb00d80207004e509000eb020700e9
:1019d0004e0090000000e800400798003b003700f0
:1019e00044010700705798007e509000e14f40007e
:1019f00036003200fe509000a0c2b30080cf5000ed
:101a000032003200fe509000f0c2b30080cf500090
:101a10002e003200fe509000b0c2b30080cf5000c4
:101a20002a003200fe509000d0c2b30080cf500098
:101a30002600320031c0b3000040eb00ba020700bc
:101a40007e509000cd0207004e0090000000e8009c
:101a5000400798001d0037002601070050579800e6
:101a60005e509000e14f400018003200de509000c0
:101a7000a0c2b30080cf500014003200de509000ae
:101a8000f0c2b30080cf500010003200de50900052
:101a9000b0c2b30080cf50000c003200de50900086
:101aa000d0c2b30080cf50000800320041c0b30064
:101ab0000040eb009c0207005e509000af02070060
:101ac0004e0090000000e800400798001000200041
:101ad00030079800020037000000eb003007980044
:101ae0004e009000e50f5000ec003a000e589000b8
:101af0000000fb006a00b900800078006e50900082
:101b00000000fb008080400000df2f0000804000cc
:101b1000100f98007e5090000000fb006a00b90092
:101b2000800078005e5090000000fb008080400044
:101b300000df2f0000804000000f98004e50900002
:101b40000000fb0010179800b00220009e109000cb
:101b5000808f5000ae003200b00220001e119000b5
:101b6000800f510005003c00a00220009e10900054
:101b7000808f50000a003200c8003700d0022000d9
:101b80001e119000800f5100b3003200f0022000bf
:101b90009e109000808f500013003200bf0037006d
:101ba0009e0890000e0890000088b9006007980019
:101bb0008040eb0010c0b3005b020700f900470053
:101bc0006e019000821f780040bc2800801f7800c2
:101bd0000100780096fb0700e48757007900470072
:101be0006e020700ad0037000e0890000000e00014
:101bf00006003a008040eb0010c0b3004a02070024
:101c000070bc280065020700a40037001e08900081
:101c10000e099000110009000200d800600798002a
:101c20001e0890000e099000110009000200d80063
:101c30008000fd00500798008040eb0010c0b3000a
:101c4000390207000000eb00000f78000000eb00f5
:101c5000100798005e0090000000e0006200340071
:101c60000000eb0020079800560037006e0090003f
:101c7000e90f50001f0034001e00e0001d003a0074
:101c80006e009000a2002000110009000200d800a0
:101c900002c3b30082404000790047000148780049
:101ca0006e009000804178006e009000a20020003d
:101cb000110009000200d8006a00b90000c05100fc
:101cc00002c3b300824040007900470011409800f1
:101cd000f9004700e0c2b300a040980010002000c7
:101ce000000f78002e00900063004000200798004d
:101cf000120037006e009000e90f50000f003c000a
:101d00001e00e0000d003a006e00900002c3b30018
:101d1000824040007900470001487800f900470000
:101d2000e0c2b3009040980010002000000f78003f
:101d30002e0090000080e800200798005e009000d0
:101d40000000e000180032001e009000e30f500079
:101d500015003c00ae0190005e0090006a00b900e2
:101d60000e099000110009000200d80002c3b30060
:101d70008240400079004700817178005e00900049
:101d80006a00b9000e099000110009000200d80095
:101d90008000fd00500798001e0090000000e80041
:101da00010079800040037002e019000f90047004a
:101db00000c2b30000f178002e0090000000e8009f
:101dc000200798002e009000e70f5000a7ff340076
:101dd0007900470001c2b30001489800790047002c
:101de000ee0107002d00370079004700fe0090004b
:101df000811f780041bc2800811f78000cfb070080
:101e0000e487570079004700e4010700230037000a
:101e10009e0890000e089000008040006007980027
:101e20008040eb0010c0b300bf010700f90047007d
:101e30006e019000821f780040bc2800801f78004f
:101e400001007800fafa0700e4875700790047009c
:101e5000d2010700110037009e0890000e08900084
:101e600000805000600798008040eb0010c0b30075
:101e7000ad010700f90047006e009000801f780058
:101e800040bc2800801f780001007800e8fa0700b5
:101e9000e487570079004700c00107008660a90069
:101ea00058fe37000000fa00c802a900c002a900cd
:101eb000c842a900c822a800c942a800c862a80058
:101ec000c022a8006860a8006a00a80068e0a80016
:101ed00068a0a8006060a8006200a80060e0a800f8
:101ee00060a0a8008660a900c8a2a8000080fa002f
:101ef000000006000600fa0000c0eb002047980032
:101f00000000eb00004088000000eb00000f7800ac
:101f10000040eb0003e8b7000000eb00000f780082
:101f2000080037001e007800d30007002180200041
:101f3000914078001e0078001c00070020479800a0
:101f40001e0fe800200020009e0f1000f5ff340057
:101f50002e40900002e8b70040002000c6000700b5
:101f600000408000e10f500004003a002e40900035
:101f70000000fb00200798000900370000408000a7
:101f80000000e00004003a0002c8bf000000fb00af
:101f900020079800020037007003200020079800f7
:101fa0002e0090000080fa00000006000600fa00f3
:101fb000000f7800214798001e00e00037003a002b
:101fc000cac2bf00624060000004e00005003a00a1
:101fd000004080000000e8000040880010c3b3000b
:101fe00003e8b700cbc2bf00644060000004e0001b
:101ff00005003a00004080000000e8000040880032
:1020000040c3b30003e8b700cac2bf006840600025
:102010000004e00005003a00004080000000e800f5
:102020000040880070c3b30003e8b700c2c2bf001d
:10203000624060000004e0000a003a00cac2bf002b
:102040000042b2000004e0000600320000408000c0
:102050000000e80000408800a0c2b30003e8b70019
:1020600072003700c2c2bf00624060000004e0009e
:102070006e003a00cac2bf000042b2000004e00095
:102080006a003a00004080000000e800004088003c
:10209000f0c2b30003e8b70064003700100020006e
:1020a0009e0f100025003a00cac2bf0062406000c7
:1020b0000004e00005003a00004080000000e80055
:1020c0000040880020c3b30003e8b700cbc2bf00c4
:1020d000644060000004e00005003a000040800019
:1020e0000000e8000040880050c3b30003e8b700d8
:1020f000cac2bf00684060000004e00005003a006a
:10210000004080000000e8000040880080c3b30069
:1021100003e8b700c2c2bf00624060000004e000f4
:1021200042003a00004080000000e80000408800c3
:1021300000c3b30003e8b7003c00370020002000d4
:102140009e0f100037003a00cac2bf006240600014
:102150000004e00005003a00004080000000e800b4
:102160000040880030c3b30003e8b700cbc2bf0013
:10217000644060000004e00005003a000040800078
:102180000000e8000040880060c3b30003e8b70027
:10219000cac2bf00684060000004e00005003a00c9
:1021a000004080000000e8000040880090c3b300b9
:1021b00003e8b700c2c2bf00624060000004e00054
:1021c0000a003a00cac2bf000042b2000004e000a8
:1021d00006003200004080000000e8000040880057
:1021e000b0c2b30003e8b70010003700c2c2bf009e
:1021f000624060000004e0000c003a00cac2bf0068
:102200000042b2000004e00008003a0000408000f4
:102210000000e80000408800d0c2b30003e8b70027
:10222000020037000040eb0003e8b70000408000e8
:10223000e10f500004003a0003c8bf000000fb009b
:102240002007980009003700004080000000e000ef
:1022500004003a002e4090000000fb002007980088
:10226000020037000080eb00200798002e0090004d
:102270000080fa00000006000200fa00000f78005b
:102280001e00e00004003a00cc02a900c402a8002d
:10229000cc42a80011003700100020009e0f100053
:1022a00004003a00cc02a800c402a900cc42a80055
:1022b0000a003700200020009e0f100004003a00a2
:1022c000cc02a800c402a800cc42a9000300370039
:1022d000cc02a900c402a900cc42a9000080fa00e7
:1022e000000006000200fa00000f78001e007800cf
:1022f0006e00b900600888000000eb00300888001c
:102300000111200091407800f0ccb30000c06000c3
:1023100010e1b70084e0a90011e1a80084c0bf006b
:1023200001c8b300014060000004e000fbff320080
:1023300011e1a90084e0a9000080fa000000060075
:102340000400fa00004f7800110798009e407800c2
:1023500061c06000c700dd00ccc2bf000074a100f6
:1023600001407000cce2b7001e009000ddff0700c6
:10237000ccc2a8001e009000daff0700ccc2a90062
:102380001e009000d7ff07000080fa000000060042
:102390000800fa00204798002107980032079800ab
:1023a0002e4090000080fb00000f78006116800036
:1023b000f0ff200080806000000f20001e00600001
:1023c0004800dd0000807000601688002e0090003c
:1023d000be009000daff070061168000f0ff2000c9
:1023e000808060001e0178006f0061004c00dd00fd
:1023f00000807000601688002e009000be009000e3
:10240000cfff07000080fa00000006000000fa007d
:102410000080eb0060198800c9e2a900c9c2a900c8
:10242000c9a2a900c982a900c8e2a900c8c2a9001e
:1024300061168000f0ff20000080600060168800b8
:10244000cce2a900ccc2a90080a92300a5ff070007
:1024500061168000f0ff20008080600000002300f3
:102460000080700060168800410021000040eb00f1
:10247000b3ff070061168000f0ff2000808060003d
:1024800000002300008070006016880041062000d4
:102490000040eb00aaff0700420620008000eb008e
:1024a00020c3b300baff0700820220008000eb00c7
:1024b00080c2b300b6ff0700820220008000eb005c
:1024c00080c0b300b2ff0700826620008000eb00ee
:1024d00010c0b300aeff0700820220008000eb00b6
:1024e00060c0b300aaff0700820220008000eb005a
:1024f000c0c0b300a6ff07000080fa00000006007d
:102500000000fa00826620008000eb0010c0b300db
:102510009fff07008000eb000000eb0002000700b7
:102520000080fa00000006000400fa00204798002e
:10253000314798002e4090000004e00005003a006a
:102540003e40900001c8b30001404000004f7800b9
:10255000040037003e40900001ccb3000140400031
:10256000004f7800820220008000eb001e407800bf
:1025700087ff07000080fa00000006000200fa0052
:10258000004f78001e407800e20220001100200079
:102590007fff07000080fa00000006000200fa003a
:1025a000000f7800040037001e007800104078000b
:1025b0001e0fe800f1ff07001e00780010407800b1
:1025c0000004e000f8ff3a000080fa000000060076
:020000040000fa
:1025d00000080000020000000200000000000000ef
:1025e00002080000020000000000000004080000d3
:1025f00002000000020000000000000006080000c9
:1026000002000000020000000000000008080000b6
:10261000a000000002000000010000000000000017
:1026200000000a000000000000000000006400003c
:102630000000000000000000e803000000000000af
:1026400000001000270000000000000000a086002d
:10265000010000000000000040420f0000000000e8
:102660000000800096980000000000000000e100db
:10267000f50500000000000000ca9a003b000000c1
:1026800000000000e40b5400020000000000e8001d
:1026900076481700000000000010a500d4e80000f4
:1026a00000000000a0724e00180900000000400069
:1026b0007a10f3005a0000000080c600a47e8d004e
:1026c0000300000000c16f00f2862300000000003c
:1026d0008a5d78004563010000006400a7b3b6007e
:1026e000e00d000000e889000423c7008a00000014
:1026f000a80800002a00000002000000286e7500f3
:102700006c6c29000030310032333400353637002c
:102710003839410042434400454600003031320020
:102720003334350036373800396162006364650040
:1027300066000000d2080000260000000200000031
:10274000d408fa0008000000fa08090000000000a0
:102750000200f80008000000f8080600020100006e
:10276000000000000000000000000600020200005f
:1027700000000000f8080000060000000000000053
:10278000fe0800000200000002000000010000003e
:042790000000000045
:00000001FF
