:020000040000fa
:080000000002040000000000f2
:020000040000fa
:100400008f8020000e7f22000e0188000000000077
:100410000c000700e05e2000010020001100070032
:10042000000020000000e000020032000000020096
:1004300000000000c0050200000000000040da00db
:100440000000fe004440a900000020000000e00081
:100450000300320000002000a00188004440a800f2
:100460000000060091018800800078000000eb0089
:1004700015003700e280400032a0b4009101ba00bc
:10048000e280400032a0b4009102ba00e280400055
:1004900032a0b4000002eb00472bde00f507b200eb
:1004a000602ce10004003a000059eb008301e900f0
:1004b000fdff3e00040037006128e100010032002a
:1004c0000082eb00040007001101ba000200e00006
:1004d000e8ff3a00000006003159ba008301e90044
:1004e0000c0032002159ba008301e90008003200f3
:1004f0000400e00003003a00e280400032a0b400b3
:10050000f5ff370011d9ba008301e900faff3a007c
:100510008100e800e180400032a0b4000000060045
:080520000040da000000fe00bb
:020000040000fa
:020000040001f9
:0457f800ad7b000085
:020000040000fa
:020000040001f9
:0457fc003f3f00002b
:020000040000fa
:1000080090020000900200009002000090020000a0
:100018009002000090020000900200009002000090
:100028009002000090020000900200009002000080
:100038009002000090020000900200009002000070
:020000040000fa
:020000040000fa
:100528000000fa00c802a900c002a900c842a90038
:10053800c022a800c942a800c862a800c822a80012
:10054800c8a2a90000408000220020001100090074
:100558000200d8008000fd0061406000614060003a
:100568004501dd00c12c200091407800f0cdb3009a
:1005780000c0600002407000cce2b7006860a800cc
:100588006a00a80068e0a80068a0a8006060a80049
:100598006200a80060e0a80060a0a8008660a9002a
:1005a8000080fa00000006000600fa0000c0eb0018
:1005b800204798000000eb00004088000000eb0096
:1005c800000f78000000eb00000f780008003700eb
:1005d8001e007800960007002180200091407800d6
:1005e8001e0078001c000700204798001e0fe80036
:1005f800200020009e0f1000f5ff34002e409000d0
:1006080002e8b70040002000890007000040800091
:10061800e10f500004003a002e4090000000fb005b
:100628002007980009003700004080000000e00023
:1006380004003a0002c8bf000000fb002007980031
:100648000200370070032000200798002e00900059
:100658000080fa00000006000800fa001007980061
:10066800414798000040eb00004f78001e009000c2
:100678000000e0001c003a00c2c2bf0062406000f7
:100688000004e00005003a00004080000000e80097
:100698000040880010c3b300004f7800cbc2bf00f1
:1006a800644060000004e00005003a00004080005b
:1006b8000000e8000040880040c3b300004f780005
:1006c800cac2bf00684060000004e00046003a006b
:1006d800004080000000e8000040880070c3b300bc
:1006e800004f7800400037001e009000e10f5000d6
:1006f8001c003a00c2c2bf00624060000004e00073
:1007080005003a00004080000000e8000040880032
:1007180020c3b300004f7800cbc2bf006440600024
:100728000004e00005003a00004080000000e800f6
:100738000040880050c3b300004f7800cac2bf0011
:10074800684060000004e00027003a000040800094
:100758000000e8000040880080c3b300004f780024
:10076800210037001e009000e20f50001c003a00e4
:10077800c2c2bf00624060000004e00005003a0009
:10078800004080000000e8000040880030c3b3004b
:10079800004f7800cbc2bf00644060000004e00056
:1007a80005003a00004080000000e8000040880092
:1007b80060c3b300004f7800cac2bf006840600041
:1007c8000004e00008003a00004080000000e80053
:1007d8000040880090c3b300004f78000200370043
:1007e8000040eb00004f780000408000e10f50000f
:1007f80003003a001e00fb0030079800090037008c
:10080800004080000000e00004003a004e409000e4
:100818000000fb0030079800020037000080eb0062
:10082800300798003e0090000080fa0000000600a3
:100838000200fa00000f78001e00e00003003a00f2
:10084800c402a800cc42a8000e0037001000200007
:100858009e0f100003003a00c402a900cc42a80071
:1008680008003700200020009e0f100003003a0007
:10087800c402a800cc42a90002003700c402a900a3
:10088800cc42a9000080fa00000006000200fa002d
:10089800000f78001e0078006e00b900600888001c
:1008a8000000eb003008880001112000914078001a
:1008b800f0ccb30000c0600010e1b70084e0a900ec
:1008c80011e1a80084c0bf0001c8b3000140600066
:1008d8000004e000fbff320011e1a90084e0a90058
:1008e8000080fa00000006000400fa00004f7800bb
:1008f800110798009e40780061c06000c700dd00c5
:10090800ccc2bf000074a10001407000cce2b70067
:100918001e009000ddff0700ccc2a8001e0090005a
:10092800daff0700ccc2a9001e009000d7ff07001d
:100938000080fa00000006000800fa00204798002e
:1009480021079800320798002e4090000080fb0095
:10095800000f780061168000f0ff200080806000a2
:10096800000f20001e0060004800dd0000807000bd
:10097800601688002e009000be009000daff070085
:1009880061168000f0ff2000808060001e01780062
:100998006f0061004c00dd00008070006016880068
:1009a8002e009000be009000cfff07000080fa00e4
:1009b800000006000000fa000080eb0060198800c3
:1009c800c9e2a900c9c2a900c9a2a900c982a9008f
:1009d800c8e2a900c8c2a90061168000f0ff200083
:1009e8000080600060168800cce2a900ccc2a90093
:1009f80080a92300a5ff070061168000f0ff2000f2
:100a0800808060000000230000807000601688006d
:100a1800410021000040eb00b3ff07006116800091
:100a2800f0ff20008080600000002300008070003c
:100a380060168800410620000040eb00aaff07006e
:100a4800420620008000eb0020c3b300baff070075
:100a5800820220008000eb0080c2b300b6ff0700ce
:100a6800820220008000eb0080c0b300b2ff0700c4
:100a7800826620008000eb0010c0b300aeff0700c4
:100a8800820220008000eb0060c0b300aaff0700cc
:100a9800820220008000eb00c0c0b300a6ff070060
:100aa8000080fa00000006000000fa0082662000bc
:100ab8008000eb0010c0b3009fff07008000eb0030
:100ac8000000eb00020007000080fa0000000600aa
:100ad8000400fa0020479800314798002e40900003
:100ae8000004e00005003a003e40900001c8b30051
:100af80001404000004f7800040037003e4090005d
:100b080001ccb30001404000004f78008202200071
:100b18008000eb001e40780087ff07000080fa0085
:100b2800000006000200fa00004f78001e4078001e
:100b3800e2022000110020007fff07000080fa0079
:100b4800000006000200fa00000f780004003700d9
:100b58001e007800104078001e0fe800f1ff070023
:100b68001e007800104078000004e000f8ff3a000a
:100b78000080fa00000006000200fa008dff07005e
:100b880067fe0700c8ff070000c3b300e5ff0700c2
:100b98000000370086c0bf00684060000004e00025
:100ba800fcff320080fe0700004f780000c0eb0019
:100bb8009e4f1000050032008040eb000040eb0023
:100bc800c3ff07001e407800d6ff07008660a90013
:040bd800f0ff3700f3
:020000040000fa
:100bdc0000080000020000000200000000000000fd
:100bec0002080000020000000000000004080000e1
:100bfc0002000000020000003000000006080000a7
:100c0c0002000000020000000000000000000000d4
:00000001FF
